var getblock_result = { hash:'6c9816508d5560711fc363a486e3b7a9a3a6c8b7e32667dbc14bc8a159c884ee',
    confirmations:1287,
    size:13506,
    height:464089,
    version:2,
    merkleroot:'92c55f85cea6213642fe420f3e04976a35306f51d19518e630286e565b911469',
    tx:[ '81acd61437b2aa729752ea54c990d5286fb8fb73872d599cd48dd9780bba2f9f',
        'd6fb653759cd54b0a119bcc20e1d61dec9618b448b34c936f990fcf1fe07d948',
        '9c519d6e820d459006be949308a8367a39d24ea60c3eec01e2bf405d329a7682',
        '6b89682572fe81611fdca76a7933767a8804a18649000d1f448bd49c8c32cfcf',
        'd69b3c7b0f78c02e040e7cf4b3cac636ea81bc6bdf2c68d9dd90da2e539f0192',
        '45a559c7bfd29c28320b86b9850177b6e34b907411bc7df364a16a56d582a578',
        'ff06d53cd0dbe866323121370faaa679ba220da9b81ac3d382e2f2cbe8ed7973',
        '9006d87b7eb9f870e5dcb9574aabf7529405b4352df005afc3db01c0953e630a',
        'aa38bfaf2d7ee1c2aca35395eb91cf5dfc97e9ac0192fbe217bb56f90b109e20',
        '4b49fabd76ad638035442e9159072e1aa6aef1f317f8c1e8ae835cab43a3914c',
        '5c4e44869254ae6ed6c782da1874fe2300383d2fee9c58f4d93dd48f110f8b85',
        '7d8cb2ade6baa025c680823aabab2d4244af97b37bbc8542fe2324bcf61ae735',
        '8449042209e56f099595f75e25cb9d22470511d1524955d0cc33abc899b325fe',
        '6a7e30f1329cf08fcd62f814094255ea0b8b6d78e369bb9e9454b4ed2b3b47a8',
        '69474999c8d9b942120e22f163f94168ad280fbb682075d1bbd72e3eee579e6d',
        'b08079369b80895245c6c6e2c91cbb5c0041c27a7980701fd59b67195f607f7b',
        '3bfe4b765a3e2c6685fcf7144a7108bf570b4440415157f5609719e574fcff67',
        '7b627b24441cc70bee775b28d5d58da412808e9d4982a3a907dbf65bd0dfb4f4',
        '00ea450ce168478661c2934f83e0f30cb9486777ee62e19604df020ad0c7409d',
        'f1fc9b68faf4b27d4529f51e8f3f2628cb66720d3db69a7b559aec91ecefcc76',
        '52539ae390f30870b7557b15599775bd4eb1541b21b36a9a35f20f4ed0fa7cc4',
        'acb83782c7117795560253fea3af8eb8accaa7839ef49f4770c5ba67584e8426',
        'ae65cdd304636515f44123757ea826c202a11bcaaecac123e1317cdfd24cd9d0',
        '420fcc2db028171a4a0aa12e95c93953a8449f4d8d34ebb445d2ffca893f70ef',
        'dee5c43b5356846a49dbff6b127220516755bad8f462ff1b87eecdd06c5d7a36',
        'b57b67044aa613b675ca1bd9b5e6fb800f2b36f35f321d608ad2d3c366eac4e3',
        '3444aab4080b51b3930c9ca3c526f1789ae07c0b29144ce000fb338a57fa1384',
        'a57475edd64d6ca6bd6750b2180ba5ba915fa46e5e4dc2ebe86d4abac392b218',
        'e36fb7d5206b75ea0b67cd1d4efeba3c599c2ebf7b4e89f3ccb6031b390858f6',
        '673ccf4005f88595631f40b2bf581b5e7ff393b2e84a604d79067e5ad31a1129',
        '25bcf8d1a1f2c7a00ecc1c40167677bce09e9d0edaf416e062e5d843fe5c90e1',
        '67f951571c1cddcd3aeb947b62d4347642293a79c18ea760adf8f302967fa94d',
        '08c6eb849ed3b059a954d513b0dc7b49cd168fad2fb8e72f177fe3090cd7dc0e',
        'f7c73617cbb3c03e2e1b3924bc54193ae3fc42f3a0b0dbd561bc7444521d244e',
        '8820f8bf12c1a60cebf0d40708729d2d2ce357426879f61e87a1d1721a39e331',
        'ef1c3d0ccfc1fe2e184615585cb029385fec7c6407a49eaf0df697df6218b641',
        '02e509d9b029e3c668c69d8ccc4ef6f70e7776820f6f80c4cfefa3172f3fdcde',
        '5134e2b18c426d8daa7a83eb04a94602a67d7df5c39cba9b7997c2ba16c6d7ff',
        '86da63e33cfc4e364ed685ed92a84248d24cd69aa3fbe8359bcc5e6d887d7bc9',
        '0a95752bbca5ae064dfa8caa167900a29ebc8fc1caf4ed0e988684c86d518656',
        '5178473e62f5cc79e3b6b3411ce61206eb98725e9b773052f34b863b42ba455a',
        '722d929f1f793e7690d30c2ade25f50037e1afc8300c3b84b4d872b2366a2abf',
        '744a3222a52edf8e5121051e20345cf5fc3c8236a974ef322df25937a00aa86a',
        '639995a839c0d277803f97d6539963d87d7c580d7bb05813f609e489c2576593',
        'a7381564febd66d85250e4b380ca11802cfb6da6d594bcee3520a09aa9a51e79',
        '452b4cc97318112af86057548e703e8fd44f529e106c8207c07c8f79f2f6428b',
        '2da7f534cf4964c58f0a3827bc234eddb36d1770dd1b3e81e620da46ce9d44af',
        '1236d38355ad6bad5dd7f66e99a73238fbe2e7f021d5443cabba47aba2bf27f8' ],
    time:1385030710,
    nonce:3005624065,
    bits:'1b2ddc00',
    difficulty:1429.04258944,
    previousblockhash:'bad73503202676fc7d0aeb6dc3f707970ee102f6a9a3e4d6b6d1b69484ea72db',
    nextblockhash:'47d4e8c58efe7e231f7f2d064cc44e8be76e871df195d8427200c522b9aeced2' };


var getrawtransaction_result = {
    hex:'01000000039001d6242bbb7c74dd2ee45a4f36ba333feb750899a2bfe86ea73da5b21fd1bf010000006a473044022024c13d7d2a197136d1d4a5d63ec08b47b6ec3600d3b3a2327e5cfe45213e6d0f0220078cd4832ce36d24b61d1df199913b1cb579487158c42e178b9bcfd73cec623a0121035b4a9cfe99d810b72efb4115b2923d0c7372df770d2ce5bed9934a5fa335c57bffffffff3e580df5c2c4cee930cc8ccc2f134d0f109383878cea1ae0b6e1872152202197000000006b48304502202f7fcef487991a94612abe5d0adc10bf08b711580e1e917e13ddcf466d170243022100b299c3d9ed6581f61bf24f7634d174cf254776422e4e73c777ff4fcd3ab3d3e70121035b4a9cfe99d810b72efb4115b2923d0c7372df770d2ce5bed9934a5fa335c57bffffffffe96c2ee4ed5047cf009e6d9eb0eca729ae13aee025628a4eeaef7eef94d70c2f010000006c49304602210098ba79d1c1ea2897ceb3da487eec231a2d4c39186439ddc2a62f914da8ce78ae022100dba92b34b09f67952097cb530feb6b1368633f22f157a383061d216297f5a3e60121035b4a9cfe99d810b72efb4115b2923d0c7372df770d2ce5bed9934a5fa335c57bffffffff0207ce9701000000001976a914aace6abdfe86006984a9d14927a335a3fad5efd388ac00c817a8040000001976a91409f1c57e22d4486956bbc26cb852d76e7a871d7f88ac00000000',
    txid:'d6fb653759cd54b0a119bcc20e1d61dec9618b448b34c936f990fcf1fe07d948',
    version:1,
    locktime:0,
    vin:[
        { txid:'bfd11fb2a53da76ee8bfa2990875eb3f33ba364f5ae42edd747cbb2b24d60190',
            vout:1,
            scriptSig:[Object],
            sequence:4294967295 },
        { txid:'972120522187e1b6e01aea8c878393100f4d132fcc8ccc30e9cec4c2f50d583e',
            vout:0,
            scriptSig:[Object],
            sequence:4294967295 },
        { txid:'2f0cd794ef7eefea4e8a6225e0ae13ae29a7ecb09e6d9e00cf4750ede42e6ce9',
            vout:1,
            scriptSig:[Object],
            sequence:4294967295 }
    ],
    vout:[
        { value:0.26725895, n:0, scriptPubKey:[Object] },
        { value:200, n:1, scriptPubKey:[Object] }
    ],
    blockhash:'6c9816508d5560711fc363a486e3b7a9a3a6c8b7e32667dbc14bc8a159c884ee',
    confirmations:26,
    time:1385030710,
    blocktime:1385030710
};

var getrawtransaction_result_vin = [
    { txid:'bfd11fb2a53da76ee8bfa2990875eb3f33ba364f5ae42edd747cbb2b24d60190',
        vout:1,
        scriptSig:{ asm:'3044022024c13d7d2a197136d1d4a5d63ec08b47b6ec3600d3b3a2327e5cfe45213e6d0f0220078cd4832ce36d24b61d1df199913b1cb579487158c42e178b9bcfd73cec623a01 035b4a9cfe99d810b72efb4115b2923d0c7372df770d2ce5bed9934a5fa335c57b',
            hex:'473044022024c13d7d2a197136d1d4a5d63ec08b47b6ec3600d3b3a2327e5cfe45213e6d0f0220078cd4832ce36d24b61d1df199913b1cb579487158c42e178b9bcfd73cec623a0121035b4a9cfe99d810b72efb4115b2923d0c7372df770d2ce5bed9934a5fa335c57b' },
        sequence:4294967295 },
    { txid:'972120522187e1b6e01aea8c878393100f4d132fcc8ccc30e9cec4c2f50d583e',
        vout:0,
        scriptSig:{ asm:'304502202f7fcef487991a94612abe5d0adc10bf08b711580e1e917e13ddcf466d170243022100b299c3d9ed6581f61bf24f7634d174cf254776422e4e73c777ff4fcd3ab3d3e701 035b4a9cfe99d810b72efb4115b2923d0c7372df770d2ce5bed9934a5fa335c57b',
            hex:'48304502202f7fcef487991a94612abe5d0adc10bf08b711580e1e917e13ddcf466d170243022100b299c3d9ed6581f61bf24f7634d174cf254776422e4e73c777ff4fcd3ab3d3e70121035b4a9cfe99d810b72efb4115b2923d0c7372df770d2ce5bed9934a5fa335c57b' },
        sequence:4294967295 },
    { txid:'2f0cd794ef7eefea4e8a6225e0ae13ae29a7ecb09e6d9e00cf4750ede42e6ce9',
        vout:1,
        scriptSig:{ asm:'304602210098ba79d1c1ea2897ceb3da487eec231a2d4c39186439ddc2a62f914da8ce78ae022100dba92b34b09f67952097cb530feb6b1368633f22f157a383061d216297f5a3e601 035b4a9cfe99d810b72efb4115b2923d0c7372df770d2ce5bed9934a5fa335c57b',
            hex:'49304602210098ba79d1c1ea2897ceb3da487eec231a2d4c39186439ddc2a62f914da8ce78ae022100dba92b34b09f67952097cb530feb6b1368633f22f157a383061d216297f5a3e60121035b4a9cfe99d810b72efb4115b2923d0c7372df770d2ce5bed9934a5fa335c57b' },
        sequence:4294967295 }
];

var getrawtransaction_result_vin0_scriptSig = { asm:'3044022024c13d7d2a197136d1d4a5d63ec08b47b6ec3600d3b3a2327e5cfe45213e6d0f0220078cd4832ce36d24b61d1df199913b1cb579487158c42e178b9bcfd73cec623a01 035b4a9cfe99d810b72efb4115b2923d0c7372df770d2ce5bed9934a5fa335c57b',
    hex:'473044022024c13d7d2a197136d1d4a5d63ec08b47b6ec3600d3b3a2327e5cfe45213e6d0f0220078cd4832ce36d24b61d1df199913b1cb579487158c42e178b9bcfd73cec623a0121035b4a9cfe99d810b72efb4115b2923d0c7372df770d2ce5bed9934a5fa335c57b' };

var getrawtransaction_result_vout0_scriptPubKey = { asm:'OP_DUP OP_HASH160 aace6abdfe86006984a9d14927a335a3fad5efd3 OP_EQUALVERIFY OP_CHECKSIG',
    hex:'76a914aace6abdfe86006984a9d14927a335a3fad5efd388ac',
    reqSigs:1,
    type:'pubkeyhash',
    addresses:[ 'Lao6QvfgfXo8Y6kGmevTa2TL9UCKMJvZpe' ] };
